{
  "_format": "hh-sol-artifact-1",
  "contractName": "OracleAdapter",
  "sourceName": "contracts/adapters/OracleAdapter.sol",
  "abi": [
    {
      "inputs": [],
      "stateMutability": "nonpayable",
      "type": "constructor"
    },
    {
      "inputs": [],
      "name": "ECDSAInvalidSignature",
      "type": "error"
    },
    {
      "inputs": [
        {
          "internalType": "uint256",
          "name": "length",
          "type": "uint256"
        }
      ],
      "name": "ECDSAInvalidSignatureLength",
      "type": "error"
    },
    {
      "inputs": [
        {
          "internalType": "bytes32",
          "name": "s",
          "type": "bytes32"
        }
      ],
      "name": "ECDSAInvalidSignatureS",
      "type": "error"
    },
    {
      "inputs": [
        {
          "internalType": "address",
          "name": "owner",
          "type": "address"
        }
      ],
      "name": "OwnableInvalidOwner",
      "type": "error"
    },
    {
      "inputs": [
        {
          "internalType": "address",
          "name": "account",
          "type": "address"
        }
      ],
      "name": "OwnableUnauthorizedAccount",
      "type": "error"
    },
    {
      "anonymous": false,
      "inputs": [
        {
          "indexed": true,
          "internalType": "address",
          "name": "attestor",
          "type": "address"
        }
      ],
      "name": "AttestorRegistered",
      "type": "event"
    },
    {
      "anonymous": false,
      "inputs": [
        {
          "indexed": true,
          "internalType": "address",
          "name": "attestor",
          "type": "address"
        }
      ],
      "name": "AttestorRevoked",
      "type": "event"
    },
    {
      "anonymous": false,
      "inputs": [
        {
          "indexed": true,
          "internalType": "address",
          "name": "previousOwner",
          "type": "address"
        },
        {
          "indexed": true,
          "internalType": "address",
          "name": "newOwner",
          "type": "address"
        }
      ],
      "name": "OwnershipTransferred",
      "type": "event"
    },
    {
      "inputs": [],
      "name": "owner",
      "outputs": [
        {
          "internalType": "address",
          "name": "",
          "type": "address"
        }
      ],
      "stateMutability": "view",
      "type": "function"
    },
    {
      "inputs": [
        {
          "internalType": "address",
          "name": "attestor",
          "type": "address"
        }
      ],
      "name": "registerAttestor",
      "outputs": [],
      "stateMutability": "nonpayable",
      "type": "function"
    },
    {
      "inputs": [
        {
          "internalType": "address",
          "name": "",
          "type": "address"
        }
      ],
      "name": "registeredAttestors",
      "outputs": [
        {
          "internalType": "bool",
          "name": "",
          "type": "bool"
        }
      ],
      "stateMutability": "view",
      "type": "function"
    },
    {
      "inputs": [],
      "name": "renounceOwnership",
      "outputs": [],
      "stateMutability": "nonpayable",
      "type": "function"
    },
    {
      "inputs": [
        {
          "internalType": "address",
          "name": "attestor",
          "type": "address"
        }
      ],
      "name": "revokeAttestor",
      "outputs": [],
      "stateMutability": "nonpayable",
      "type": "function"
    },
    {
      "inputs": [
        {
          "internalType": "address",
          "name": "newOwner",
          "type": "address"
        }
      ],
      "name": "transferOwnership",
      "outputs": [],
      "stateMutability": "nonpayable",
      "type": "function"
    },
    {
      "inputs": [
        {
          "components": [
            {
              "internalType": "bytes32",
              "name": "paymentId",
              "type": "bytes32"
            },
            {
              "internalType": "bytes32",
              "name": "requestHash",
              "type": "bytes32"
            },
            {
              "internalType": "bytes32",
              "name": "resultHash",
              "type": "bytes32"
            },
            {
              "internalType": "address",
              "name": "sellerPassport",
              "type": "address"
            },
            {
              "internalType": "address",
              "name": "buyerPassport",
              "type": "address"
            },
            {
              "internalType": "enum ProofType",
              "name": "proofType",
              "type": "uint8"
            },
            {
              "internalType": "bytes",
              "name": "proofPayload",
              "type": "bytes"
            },
            {
              "internalType": "address",
              "name": "attestor",
              "type": "address"
            },
            {
              "internalType": "uint64",
              "name": "deliveredAt",
              "type": "uint64"
            },
            {
              "internalType": "uint64",
              "name": "deadline",
              "type": "uint64"
            }
          ],
          "internalType": "struct Quittance",
          "name": "q",
          "type": "tuple"
        }
      ],
      "name": "verify",
      "outputs": [
        {
          "internalType": "bool",
          "name": "",
          "type": "bool"
        }
      ],
      "stateMutability": "view",
      "type": "function"
    }
  ],
  "bytecode": "0x6080604052348015600e575f80fd5b503380603357604051631e4fbdf760e01b81525f600482015260240160405180910390fd5b603a81603f565b50608e565b5f80546001600160a01b038381166001600160a01b0319831681178455604051919092169283917f8be0079c531659141344cd1fd0a4f28419497f9722a3daafe3b4186f6b6457e09190a35050565b6106ef8061009b5f395ff3fe608060405234801561000f575f80fd5b506004361061007a575f3560e01c80638da5cb5b116100585780638da5cb5b146100d2578063904f4836146100ec57806395cf8928146100ff578063f2fde38b14610112575f80fd5b80630477687f1461007e578063602ad665146100b5578063715018a6146100ca575b5f80fd5b6100a061008c3660046105f6565b60016020525f908152604090205460ff1681565b60405190151581526020015b60405180910390f35b6100c86100c33660046105f6565b610125565b005b6100c86101cd565b5f546040516001600160a01b0390911681526020016100ac565b6100c86100fa3660046105f6565b6101e0565b6100a061010d366004610623565b610230565b6100c86101203660046105f6565b610349565b61012d610386565b6001600160a01b03811661017f5760405162461bcd60e51b81526020600482015260146024820152734f7261636c653a207a65726f206164647265737360601b60448201526064015b60405180910390fd5b6001600160a01b0381165f818152600160208190526040808320805460ff1916909217909155517f33670d4500da202e23e51fca99d5ef6ff8755f4cb476e69700364cdd49d27eb09190a250565b6101d5610386565b6101de5f6103b2565b565b6101e8610386565b6001600160a01b0381165f81815260016020526040808220805460ff19169055517f6db04a1d0bcf5d36ee7c6d7f7c40c79579eb83a22d7ae9a04aa0181d649ff4949190a250565b5f61023e60c083018361065b565b905060411461024e57505f919050565b6040805183356020808301919091528483013582840152825180830384018152606090920190925280519101207f19457468657265756d205369676e6564204d6573736167653a0a3332000000005f908152601c91909152603c8120906102f76102bb60c086018661065b565b8080601f0160208091040260200160405190810160405280939291908181526020018383808284375f9201919091525086939250506104019050565b905061030a610100850160e086016105f6565b6001600160a01b0316816001600160a01b031614801561034157506001600160a01b0381165f9081526001602052604090205460ff165b949350505050565b610351610386565b6001600160a01b03811661037a57604051631e4fbdf760e01b81525f6004820152602401610176565b610383816103b2565b50565b5f546001600160a01b031633146101de5760405163118cdaa760e01b8152336004820152602401610176565b5f80546001600160a01b038381166001600160a01b0319831681178455604051919092169283917f8be0079c531659141344cd1fd0a4f28419497f9722a3daafe3b4186f6b6457e09190a35050565b5f805f8061040f8686610429565b92509250925061041f8282610472565b5090949350505050565b5f805f8351604103610460576020840151604085015160608601515f1a6104528882858561052e565b95509550955050505061046b565b505081515f91506002905b9250925092565b5f826003811115610485576104856106a5565b0361048e575050565b60018260038111156104a2576104a26106a5565b036104c05760405163f645eedf60e01b815260040160405180910390fd5b60028260038111156104d4576104d46106a5565b036104f55760405163fce698f760e01b815260048101829052602401610176565b6003826003811115610509576105096106a5565b0361052a576040516335e2f38360e21b815260048101829052602401610176565b5050565b5f80807f7fffffffffffffffffffffffffffffff5d576e7357a4501ddfe92f46681b20a084111561056757505f915060039050826105ec565b604080515f808252602082018084528a905260ff891692820192909252606081018790526080810186905260019060a0016020604051602081039080840390855afa1580156105b8573d5f803e3d5ffd5b5050604051601f1901519150506001600160a01b0381166105e357505f9250600191508290506105ec565b92505f91508190505b9450945094915050565b5f60208284031215610606575f80fd5b81356001600160a01b038116811461061c575f80fd5b9392505050565b5f60208284031215610633575f80fd5b813567ffffffffffffffff811115610649575f80fd5b8201610140818503121561061c575f80fd5b5f808335601e19843603018112610670575f80fd5b83018035915067ffffffffffffffff82111561068a575f80fd5b60200191503681900382131561069e575f80fd5b9250929050565b634e487b7160e01b5f52602160045260245ffdfea26469706673582212207c9f409019a3de7ab7a215cea31a94bbef20ba2bc6186e099cab4c9788d9b3ec64736f6c634300081a0033",
  "linkReferences": {},
  "deployedLinkReferences": {}
}