{
  "_format": "hh-sol-artifact-1",
  "contractName": "TimeoutAdapter",
  "sourceName": "contracts/adapters/TimeoutAdapter.sol",
  "abi": [
    {
      "inputs": [
        {
          "internalType": "address",
          "name": "_escrow",
          "type": "address"
        }
      ],
      "stateMutability": "nonpayable",
      "type": "constructor"
    },
    {
      "inputs": [],
      "name": "escrow",
      "outputs": [
        {
          "internalType": "contract Escrow",
          "name": "",
          "type": "address"
        }
      ],
      "stateMutability": "view",
      "type": "function"
    },
    {
      "inputs": [
        {
          "components": [
            {
              "internalType": "bytes32",
              "name": "paymentId",
              "type": "bytes32"
            },
            {
              "internalType": "bytes32",
              "name": "requestHash",
              "type": "bytes32"
            },
            {
              "internalType": "bytes32",
              "name": "resultHash",
              "type": "bytes32"
            },
            {
              "internalType": "address",
              "name": "sellerPassport",
              "type": "address"
            },
            {
              "internalType": "address",
              "name": "buyerPassport",
              "type": "address"
            },
            {
              "internalType": "enum ProofType",
              "name": "proofType",
              "type": "uint8"
            },
            {
              "internalType": "bytes",
              "name": "proofPayload",
              "type": "bytes"
            },
            {
              "internalType": "address",
              "name": "attestor",
              "type": "address"
            },
            {
              "internalType": "uint64",
              "name": "deliveredAt",
              "type": "uint64"
            },
            {
              "internalType": "uint64",
              "name": "deadline",
              "type": "uint64"
            }
          ],
          "internalType": "struct Quittance",
          "name": "q",
          "type": "tuple"
        }
      ],
      "name": "verify",
      "outputs": [
        {
          "internalType": "bool",
          "name": "",
          "type": "bool"
        }
      ],
      "stateMutability": "view",
      "type": "function"
    }
  ],
  "bytecode": "0x60a060405234801561000f575f80fd5b5060405161034138038061034183398101604081905261002e91610099565b6001600160a01b0381166100885760405162461bcd60e51b815260206004820152601460248201527f54696d656f75743a207a65726f20657363726f77000000000000000000000000604482015260640160405180910390fd5b6001600160a01b03166080526100c6565b5f602082840312156100a9575f80fd5b81516001600160a01b03811681146100bf575f80fd5b9392505050565b60805161025e6100e35f395f81816065015260bb015261025e5ff3fe608060405234801561000f575f80fd5b5060043610610034575f3560e01c806395cf892814610038578063e2fdcc1714610060575b5f80fd5b61004b610046366004610148565b61009f565b60405190151581526020015b60405180910390f35b6100877f000000000000000000000000000000000000000000000000000000000000000081565b6040516001600160a01b039091168152602001610057565b6040516308b6c05160e41b8152813560048201525f90819081907f00000000000000000000000000000000000000000000000000000000000000006001600160a01b031690638b6c05109060240160c060405180830381865afa158015610108573d5f803e3d5ffd5b505050506040513d601f19601f8201168201806040525081019061012c91906101b1565b955095505050505081158015610140575080155b949350505050565b5f60208284031215610158575f80fd5b813567ffffffffffffffff81111561016e575f80fd5b82016101408185031215610180575f80fd5b9392505050565b80516001600160a01b038116811461019d575f80fd5b919050565b8051801515811461019d575f80fd5b5f805f805f8060c087890312156101c6575f80fd5b6101cf87610187565b95506101dd60208801610187565b945060408701519350606087015167ffffffffffffffff81168114610200575f80fd5b925061020e608088016101a2565b915061021c60a088016101a2565b9050929550929550929556fea2646970667358221220065ed7e45a1364e3149c16ae1144fc3d71ce3975459fd3b3fc8b8ddad03f451b64736f6c634300081a0033",
  "linkReferences": {},
  "deployedLinkReferences": {}
}