{
  "_format": "hh-sol-artifact-1",
  "contractName": "Escrow",
  "sourceName": "contracts/Escrow.sol",
  "abi": [
    {
      "inputs": [
        {
          "internalType": "address",
          "name": "_token",
          "type": "address"
        },
        {
          "internalType": "address",
          "name": "_bond",
          "type": "address"
        }
      ],
      "stateMutability": "nonpayable",
      "type": "constructor"
    },
    {
      "inputs": [
        {
          "internalType": "address",
          "name": "owner",
          "type": "address"
        }
      ],
      "name": "OwnableInvalidOwner",
      "type": "error"
    },
    {
      "inputs": [
        {
          "internalType": "address",
          "name": "account",
          "type": "address"
        }
      ],
      "name": "OwnableUnauthorizedAccount",
      "type": "error"
    },
    {
      "inputs": [
        {
          "internalType": "address",
          "name": "token",
          "type": "address"
        }
      ],
      "name": "SafeERC20FailedOperation",
      "type": "error"
    },
    {
      "anonymous": false,
      "inputs": [
        {
          "indexed": true,
          "internalType": "bytes32",
          "name": "paymentId",
          "type": "bytes32"
        },
        {
          "indexed": true,
          "internalType": "address",
          "name": "buyer",
          "type": "address"
        },
        {
          "indexed": true,
          "internalType": "address",
          "name": "seller",
          "type": "address"
        },
        {
          "indexed": false,
          "internalType": "uint256",
          "name": "amount",
          "type": "uint256"
        },
        {
          "indexed": false,
          "internalType": "uint64",
          "name": "deadline",
          "type": "uint64"
        },
        {
          "indexed": false,
          "internalType": "enum ProofType",
          "name": "proofType",
          "type": "uint8"
        }
      ],
      "name": "EscrowOpened",
      "type": "event"
    },
    {
      "anonymous": false,
      "inputs": [
        {
          "indexed": true,
          "internalType": "bytes32",
          "name": "paymentId",
          "type": "bytes32"
        },
        {
          "indexed": true,
          "internalType": "address",
          "name": "buyer",
          "type": "address"
        },
        {
          "indexed": false,
          "internalType": "uint256",
          "name": "amount",
          "type": "uint256"
        },
        {
          "indexed": false,
          "internalType": "uint256",
          "name": "slashed",
          "type": "uint256"
        }
      ],
      "name": "EscrowRefunded",
      "type": "event"
    },
    {
      "anonymous": false,
      "inputs": [
        {
          "indexed": true,
          "internalType": "bytes32",
          "name": "paymentId",
          "type": "bytes32"
        },
        {
          "indexed": true,
          "internalType": "address",
          "name": "seller",
          "type": "address"
        },
        {
          "indexed": false,
          "internalType": "uint256",
          "name": "amount",
          "type": "uint256"
        }
      ],
      "name": "EscrowSettled",
      "type": "event"
    },
    {
      "anonymous": false,
      "inputs": [
        {
          "indexed": true,
          "internalType": "address",
          "name": "previousOwner",
          "type": "address"
        },
        {
          "indexed": true,
          "internalType": "address",
          "name": "newOwner",
          "type": "address"
        }
      ],
      "name": "OwnershipTransferred",
      "type": "event"
    },
    {
      "anonymous": false,
      "inputs": [
        {
          "indexed": false,
          "internalType": "address",
          "name": "registry",
          "type": "address"
        }
      ],
      "name": "RegistrySet",
      "type": "event"
    },
    {
      "inputs": [],
      "name": "bond",
      "outputs": [
        {
          "internalType": "contract Bond",
          "name": "",
          "type": "address"
        }
      ],
      "stateMutability": "view",
      "type": "function"
    },
    {
      "inputs": [
        {
          "internalType": "bytes32",
          "name": "",
          "type": "bytes32"
        }
      ],
      "name": "escrows",
      "outputs": [
        {
          "internalType": "address",
          "name": "buyer",
          "type": "address"
        },
        {
          "internalType": "address",
          "name": "seller",
          "type": "address"
        },
        {
          "internalType": "uint256",
          "name": "amount",
          "type": "uint256"
        },
        {
          "internalType": "uint64",
          "name": "deadline",
          "type": "uint64"
        },
        {
          "internalType": "enum ProofType",
          "name": "proofType",
          "type": "uint8"
        },
        {
          "internalType": "bool",
          "name": "settled",
          "type": "bool"
        },
        {
          "internalType": "bool",
          "name": "refunded",
          "type": "bool"
        }
      ],
      "stateMutability": "view",
      "type": "function"
    },
    {
      "inputs": [
        {
          "internalType": "address",
          "name": "",
          "type": "address"
        }
      ],
      "name": "failedCount",
      "outputs": [
        {
          "internalType": "uint256",
          "name": "",
          "type": "uint256"
        }
      ],
      "stateMutability": "view",
      "type": "function"
    },
    {
      "inputs": [
        {
          "internalType": "bytes32",
          "name": "paymentId",
          "type": "bytes32"
        }
      ],
      "name": "getEscrowRecord",
      "outputs": [
        {
          "internalType": "address",
          "name": "buyer",
          "type": "address"
        },
        {
          "internalType": "address",
          "name": "seller",
          "type": "address"
        },
        {
          "internalType": "uint256",
          "name": "amount",
          "type": "uint256"
        },
        {
          "internalType": "uint64",
          "name": "deadline",
          "type": "uint64"
        },
        {
          "internalType": "bool",
          "name": "settled",
          "type": "bool"
        },
        {
          "internalType": "bool",
          "name": "refunded",
          "type": "bool"
        }
      ],
      "stateMutability": "view",
      "type": "function"
    },
    {
      "inputs": [
        {
          "internalType": "bytes32",
          "name": "paymentId",
          "type": "bytes32"
        },
        {
          "internalType": "address",
          "name": "buyer",
          "type": "address"
        },
        {
          "internalType": "address",
          "name": "seller",
          "type": "address"
        },
        {
          "internalType": "uint256",
          "name": "amount",
          "type": "uint256"
        },
        {
          "internalType": "uint64",
          "name": "deadline",
          "type": "uint64"
        },
        {
          "internalType": "enum ProofType",
          "name": "proofType",
          "type": "uint8"
        }
      ],
      "name": "openEscrow",
      "outputs": [],
      "stateMutability": "nonpayable",
      "type": "function"
    },
    {
      "inputs": [],
      "name": "owner",
      "outputs": [
        {
          "internalType": "address",
          "name": "",
          "type": "address"
        }
      ],
      "stateMutability": "view",
      "type": "function"
    },
    {
      "inputs": [
        {
          "internalType": "bytes32",
          "name": "paymentId",
          "type": "bytes32"
        }
      ],
      "name": "refund",
      "outputs": [],
      "stateMutability": "nonpayable",
      "type": "function"
    },
    {
      "inputs": [],
      "name": "registry",
      "outputs": [
        {
          "internalType": "address",
          "name": "",
          "type": "address"
        }
      ],
      "stateMutability": "view",
      "type": "function"
    },
    {
      "inputs": [],
      "name": "renounceOwnership",
      "outputs": [],
      "stateMutability": "nonpayable",
      "type": "function"
    },
    {
      "inputs": [
        {
          "internalType": "address",
          "name": "_registry",
          "type": "address"
        }
      ],
      "name": "setRegistry",
      "outputs": [],
      "stateMutability": "nonpayable",
      "type": "function"
    },
    {
      "inputs": [
        {
          "internalType": "bytes32",
          "name": "paymentId",
          "type": "bytes32"
        }
      ],
      "name": "settle",
      "outputs": [],
      "stateMutability": "nonpayable",
      "type": "function"
    },
    {
      "inputs": [],
      "name": "token",
      "outputs": [
        {
          "internalType": "contract IERC20",
          "name": "",
          "type": "address"
        }
      ],
      "stateMutability": "view",
      "type": "function"
    },
    {
      "inputs": [
        {
          "internalType": "address",
          "name": "newOwner",
          "type": "address"
        }
      ],
      "name": "transferOwnership",
      "outputs": [],
      "stateMutability": "nonpayable",
      "type": "function"
    }
  ],
  "bytecode": "0x60c060405234801561000f575f80fd5b5060405161125a38038061125a83398101604081905261002e91610174565b338061005457604051631e4fbdf760e01b81525f60048201526024015b60405180910390fd5b61005d8161010a565b506001600160a01b0382166100a95760405162461bcd60e51b815260206004820152601260248201527122b9b1b937bb9d103d32b937903a37b5b2b760711b604482015260640161004b565b6001600160a01b0381166100f35760405162461bcd60e51b8152602060048201526011602482015270115cd8dc9bddce881e995c9bc8189bdb99607a1b604482015260640161004b565b6001600160a01b039182166080521660a0526101a5565b5f80546001600160a01b038381166001600160a01b0319831681178455604051919092169283917f8be0079c531659141344cd1fd0a4f28419497f9722a3daafe3b4186f6b6457e09190a35050565b80516001600160a01b038116811461016f575f80fd5b919050565b5f8060408385031215610185575f80fd5b61018e83610159565b915061019c60208401610159565b90509250929050565b60805160a0516110716101e95f395f81816101870152818161055901526109f601525f81816102fb015281816104ff015281816107490152610ab801526110715ff3fe608060405234801561000f575f80fd5b50600436106100cb575f3560e01c80638b6c051011610088578063a91ee0dc11610063578063a91ee0dc146102bd578063d6663d3e146102d0578063f2fde38b146102e3578063fc0c546a146102f6575f80fd5b80638b6c0510146101f15780638da5cb5b1461029a578063987757dd146102aa575f80fd5b8063145a47c1146100cf5780632d83549c1461010157806364c9ec6f14610182578063715018a6146101c15780637249fbb6146101cb5780637b103999146101de575b5f80fd5b6100ee6100dd366004610e94565b60036020525f908152604090205481565b6040519081526020015b60405180910390f35b61016f61010f366004610eb4565b600260208190525f918252604090912080546001820154928201546003909201546001600160a01b0391821693909116919067ffffffffffffffff81169060ff600160401b8204811691600160481b8104821691600160501b9091041687565b6040516100f89796959493929190610eff565b6101a97f000000000000000000000000000000000000000000000000000000000000000081565b6040516001600160a01b0390911681526020016100f8565b6101c961031d565b005b6101c96101d9366004610eb4565b610330565b6001546101a9906001600160a01b031681565b6102546101ff366004610eb4565b5f90815260026020819052604090912080546001820154928201546003909201546001600160a01b0391821694919093169267ffffffffffffffff81169160ff600160481b8304811692600160501b90041690565b604080516001600160a01b0397881681529690951660208701529385019290925267ffffffffffffffff16606084015215156080830152151560a082015260c0016100f8565b5f546001600160a01b03166101a9565b6101c96102b8366004610eb4565b610605565b6101c96102cb366004610e94565b6107cb565b6101c96102de366004610f55565b6108ce565b6101c96102f1366004610e94565b610c7c565b6101a97f000000000000000000000000000000000000000000000000000000000000000081565b610325610cb9565b61032e5f610ce5565b565b5f81815260026020526040902080546001600160a01b031661038d5760405162461bcd60e51b8152602060048201526011602482015270115cd8dc9bddce881b9bdd08199bdd5b99607a1b60448201526064015b60405180910390fd5b6003810154600160481b900460ff161580156103b557506003810154600160501b900460ff16155b6103fc5760405162461bcd60e51b8152602060048201526018602482015277115cd8dc9bddce88185b1c9958591e481c995cdbdb1d995960421b6044820152606401610384565b600381015467ffffffffffffffff1642116104595760405162461bcd60e51b815260206004820152601b60248201527f457363726f773a20646561646c696e65206e6f742070617373656400000000006044820152606401610384565b80546001600160a01b031633146104a75760405162461bcd60e51b815260206004820152601260248201527122b9b1b937bb9d1037b7363c90313abcb2b960711b6044820152606401610384565b6003808201805460ff60501b1916600160501b17905560018201546001600160a01b03165f908152602091909152604081208054916104e583610fcc565b909155505080546002820154610529916001600160a01b037f0000000000000000000000000000000000000000000000000000000000000000811692911690610d34565b600281015460018201546040516302fb4d8560e01b81526001600160a01b039182166004820152602481018390527f0000000000000000000000000000000000000000000000000000000000000000909116906302fb4d85906044015f604051808303815f87803b15801561059c575f80fd5b505af11580156105ae573d5f803e3d5ffd5b50508354600285015460408051918252602082018690526001600160a01b0390921693508692507f8c62a9ca4895f0d8e361a8175f0a5b38ae42eb8bf1e5f03ba59ca8d16c984474910160405180910390a3505050565b6001546001600160a01b031633146106575760405162461bcd60e51b8152602060048201526015602482015274457363726f773a206f6e6c7920726567697374727960581b6044820152606401610384565b5f81815260026020526040902080546001600160a01b03166106af5760405162461bcd60e51b8152602060048201526011602482015270115cd8dc9bddce881b9bdd08199bdd5b99607a1b6044820152606401610384565b6003810154600160481b900460ff161580156106d757506003810154600160501b900460ff16155b61071e5760405162461bcd60e51b8152602060048201526018602482015277115cd8dc9bddce88185b1c9958591e481c995cdbdb1d995960421b6044820152606401610384565b60038101805469ff0000000000000000001916600160481b1790556001810154600282015461077c917f00000000000000000000000000000000000000000000000000000000000000006001600160a01b0390811692911690610d34565b600181015460028201546040519081526001600160a01b039091169083907ff7d098cafe8e938a9f348011eeb12e5fa56a98d5eb7ba595c4f8bb1a8134ae189060200160405180910390a35050565b6107d3610cb9565b6001546001600160a01b03161561082c5760405162461bcd60e51b815260206004820152601c60248201527f457363726f773a20726567697374727920616c726561647920736574000000006044820152606401610384565b6001600160a01b03811661087a5760405162461bcd60e51b8152602060048201526015602482015274457363726f773a207a65726f20726567697374727960581b6044820152606401610384565b600180546001600160a01b0319166001600160a01b0383169081179091556040519081527f27fe5f0c1c3b1ed427cc63d0f05759ffdecf9aec9e18d31ef366fc8a6cb5dc3b9060200160405180910390a150565b5f868152600260205260409020546001600160a01b0316156109325760405162461bcd60e51b815260206004820152601e60248201527f457363726f773a207061796d656e74496420616c7265616479207573656400006044820152606401610384565b428267ffffffffffffffff161161098b5760405162461bcd60e51b815260206004820152601860248201527f457363726f773a20646561646c696e6520696e207061737400000000000000006044820152606401610384565b5f83116109d05760405162461bcd60e51b8152602060048201526013602482015272115cd8dc9bddce881e995c9bc8185b5bdd5b9d606a1b6044820152606401610384565b60405163074ee94160e31b81526001600160a01b038581166004830152602482018590527f00000000000000000000000000000000000000000000000000000000000000001690633a774a0890604401602060405180830381865afa158015610a3b573d5f803e3d5ffd5b505050506040513d601f19601f82011682018060405250810190610a5f9190610ff0565b610aab5760405162461bcd60e51b815260206004820152601a60248201527f457363726f773a2073656c6c657220756e646572626f6e6465640000000000006044820152606401610384565b610ae06001600160a01b037f000000000000000000000000000000000000000000000000000000000000000016863086610d6e565b6040518060e00160405280866001600160a01b03168152602001856001600160a01b031681526020018481526020018367ffffffffffffffff168152602001826005811115610b3157610b31610ecb565b81525f60208083018290526040928301829052898252600280825291839020845181546001600160a01b03199081166001600160a01b03928316178355928601516001830180549094169116179091559183015190820155606082015160038201805467ffffffffffffffff19811667ffffffffffffffff909316928317825560808501519268ffffffffffffffffff1990911617600160401b836005811115610bdd57610bdd610ecb565b021790555060a08201516003909101805460c0909301511515600160501b0260ff60501b19921515600160481b02929092166affff00000000000000000019909316929092171790556040516001600160a01b03808616919087169088907f3523b78ec39c86800317bda889066bada6a2d8ef61d0168fa61b6926346c27a290610c6c9088908890889061100f565b60405180910390a4505050505050565b610c84610cb9565b6001600160a01b038116610cad57604051631e4fbdf760e01b81525f6004820152602401610384565b610cb681610ce5565b50565b5f546001600160a01b0316331461032e5760405163118cdaa760e01b8152336004820152602401610384565b5f80546001600160a01b038381166001600160a01b0319831681178455604051919092169283917f8be0079c531659141344cd1fd0a4f28419497f9722a3daafe3b4186f6b6457e09190a35050565b610d418383836001610daa565b610d6957604051635274afe760e01b81526001600160a01b0384166004820152602401610384565b505050565b610d7c848484846001610e0c565b610da457604051635274afe760e01b81526001600160a01b0385166004820152602401610384565b50505050565b60405163a9059cbb60e01b5f8181526001600160a01b038616600452602485905291602083604481808b5af1925060015f51148316610e00578383151615610df4573d5f823e3d81fd5b5f873b113d1516831692505b60405250949350505050565b6040516323b872dd60e01b5f8181526001600160a01b038781166004528616602452604485905291602083606481808c5af1925060015f51148316610e68578383151615610e5c573d5f823e3d81fd5b5f883b113d1516831692505b604052505f60605295945050505050565b80356001600160a01b0381168114610e8f575f80fd5b919050565b5f60208284031215610ea4575f80fd5b610ead82610e79565b9392505050565b5f60208284031215610ec4575f80fd5b5035919050565b634e487b7160e01b5f52602160045260245ffd5b60068110610efb57634e487b7160e01b5f52602160045260245ffd5b9052565b6001600160a01b038881168252871660208201526040810186905267ffffffffffffffff8516606082015260e08101610f3b6080830186610edf565b92151560a082015290151560c09091015295945050505050565b5f805f805f8060c08789031215610f6a575f80fd5b86359550610f7a60208801610e79565b9450610f8860408801610e79565b935060608701359250608087013567ffffffffffffffff81168114610fab575f80fd5b915060a087013560068110610fbe575f80fd5b809150509295509295509295565b5f60018201610fe957634e487b7160e01b5f52601160045260245ffd5b5060010190565b5f60208284031215611000575f80fd5b81518015158114610ead575f80fd5b83815267ffffffffffffffff83166020820152606081016110336040830184610edf565b94935050505056fea26469706673582212203fa6ed3ab6fe7d4142398473da2fc0f3238d268ef003a14ba7094989077d32be64736f6c634300081a0033",
  "linkReferences": {},
  "deployedLinkReferences": {}
}