{
  "_format": "hh-sol-artifact-1",
  "contractName": "AdapterRegistry",
  "sourceName": "contracts/AdapterRegistry.sol",
  "abi": [
    {
      "inputs": [],
      "stateMutability": "nonpayable",
      "type": "constructor"
    },
    {
      "inputs": [
        {
          "internalType": "address",
          "name": "owner",
          "type": "address"
        }
      ],
      "name": "OwnableInvalidOwner",
      "type": "error"
    },
    {
      "inputs": [
        {
          "internalType": "address",
          "name": "account",
          "type": "address"
        }
      ],
      "name": "OwnableUnauthorizedAccount",
      "type": "error"
    },
    {
      "anonymous": false,
      "inputs": [
        {
          "indexed": true,
          "internalType": "enum ProofType",
          "name": "proofType",
          "type": "uint8"
        },
        {
          "indexed": true,
          "internalType": "address",
          "name": "adapter",
          "type": "address"
        }
      ],
      "name": "AdapterRegistered",
      "type": "event"
    },
    {
      "anonymous": false,
      "inputs": [
        {
          "indexed": true,
          "internalType": "enum ProofType",
          "name": "proofType",
          "type": "uint8"
        }
      ],
      "name": "AdapterRemoved",
      "type": "event"
    },
    {
      "anonymous": false,
      "inputs": [
        {
          "indexed": true,
          "internalType": "address",
          "name": "previousOwner",
          "type": "address"
        },
        {
          "indexed": true,
          "internalType": "address",
          "name": "newOwner",
          "type": "address"
        }
      ],
      "name": "OwnershipTransferred",
      "type": "event"
    },
    {
      "inputs": [
        {
          "internalType": "enum ProofType",
          "name": "",
          "type": "uint8"
        }
      ],
      "name": "adapters",
      "outputs": [
        {
          "internalType": "address",
          "name": "",
          "type": "address"
        }
      ],
      "stateMutability": "view",
      "type": "function"
    },
    {
      "inputs": [],
      "name": "owner",
      "outputs": [
        {
          "internalType": "address",
          "name": "",
          "type": "address"
        }
      ],
      "stateMutability": "view",
      "type": "function"
    },
    {
      "inputs": [
        {
          "internalType": "enum ProofType",
          "name": "proofType",
          "type": "uint8"
        },
        {
          "internalType": "address",
          "name": "adapter",
          "type": "address"
        }
      ],
      "name": "register",
      "outputs": [],
      "stateMutability": "nonpayable",
      "type": "function"
    },
    {
      "inputs": [
        {
          "internalType": "enum ProofType",
          "name": "proofType",
          "type": "uint8"
        }
      ],
      "name": "remove",
      "outputs": [],
      "stateMutability": "nonpayable",
      "type": "function"
    },
    {
      "inputs": [],
      "name": "renounceOwnership",
      "outputs": [],
      "stateMutability": "nonpayable",
      "type": "function"
    },
    {
      "inputs": [
        {
          "internalType": "address",
          "name": "newOwner",
          "type": "address"
        }
      ],
      "name": "transferOwnership",
      "outputs": [],
      "stateMutability": "nonpayable",
      "type": "function"
    },
    {
      "inputs": [
        {
          "components": [
            {
              "internalType": "bytes32",
              "name": "paymentId",
              "type": "bytes32"
            },
            {
              "internalType": "bytes32",
              "name": "requestHash",
              "type": "bytes32"
            },
            {
              "internalType": "bytes32",
              "name": "resultHash",
              "type": "bytes32"
            },
            {
              "internalType": "address",
              "name": "sellerPassport",
              "type": "address"
            },
            {
              "internalType": "address",
              "name": "buyerPassport",
              "type": "address"
            },
            {
              "internalType": "enum ProofType",
              "name": "proofType",
              "type": "uint8"
            },
            {
              "internalType": "bytes",
              "name": "proofPayload",
              "type": "bytes"
            },
            {
              "internalType": "address",
              "name": "attestor",
              "type": "address"
            },
            {
              "internalType": "uint64",
              "name": "deliveredAt",
              "type": "uint64"
            },
            {
              "internalType": "uint64",
              "name": "deadline",
              "type": "uint64"
            }
          ],
          "internalType": "struct Quittance",
          "name": "q",
          "type": "tuple"
        }
      ],
      "name": "verify",
      "outputs": [
        {
          "internalType": "bool",
          "name": "",
          "type": "bool"
        }
      ],
      "stateMutability": "view",
      "type": "function"
    }
  ],
  "bytecode": "0x6080604052348015600e575f80fd5b503380603357604051631e4fbdf760e01b81525f600482015260240160405180910390fd5b603a81603f565b50608e565b5f80546001600160a01b038381166001600160a01b0319831681178455604051919092169283917f8be0079c531659141344cd1fd0a4f28419497f9722a3daafe3b4186f6b6457e09190a35050565b61076f8061009b5f395ff3fe608060405234801561000f575f80fd5b506004361061007a575f3560e01c8063b27a69dc11610058578063b27a69dc146100d4578063bbca36ac146100e7578063f2fde38b146100fa578063fc6d45151461010d575f80fd5b8063715018a61461007e5780638da5cb5b1461008857806395cf8928146100b1575b5f80fd5b610086610135565b005b5f546001600160a01b03165b6040516001600160a01b0390911681526020015b60405180910390f35b6100c46100bf36600461049b565b610148565b60405190151581526020016100a8565b6100866100e23660046104fc565b61026d565b6100866100f536600461052d565b61035b565b610086610108366004610546565b6103e3565b61009461011b36600461052d565b60016020525f90815260409020546001600160a01b031681565b61013d610420565b6101465f61044c565b565b5f8060018161015d60c0860160a0870161052d565b600581111561016e5761016e61055f565b600581111561017f5761017f61055f565b815260208101919091526040015f20546001600160a01b03169050806101fb5760405162461bcd60e51b815260206004820152602660248201527f4164617074657252656769737472793a206e6f206164617074657220726567696044820152651cdd195c995960d21b60648201526084015b60405180910390fd5b6040516312b9f12560e31b81526001600160a01b038216906395cf89289061022790869060040161061b565b602060405180830381865afa158015610242573d5f803e3d5ffd5b505050506040513d601f19601f82011682018060405250810190610266919061071a565b9392505050565b610275610420565b6001600160a01b0381166102cb5760405162461bcd60e51b815260206004820152601d60248201527f4164617074657252656769737472793a207a65726f206164647265737300000060448201526064016101f2565b8060015f8460058111156102e1576102e161055f565b60058111156102f2576102f261055f565b815260208101919091526040015f2080546001600160a01b0319166001600160a01b03928316179055811682600581111561032f5761032f61055f565b6040517f01f4d367880bf7f8936d509ed8e52392d889ee1f30d2848bcc0da5ea9e5600cc905f90a35050565b610363610420565b60015f8260058111156103785761037861055f565b60058111156103895761038961055f565b815260208101919091526040015f2080546001600160a01b03191690558060058111156103b8576103b861055f565b6040517fb5cc8c3b77fd335dbbacf0af030620e379a10fd152f58e10f0ff102b680a1202905f90a250565b6103eb610420565b6001600160a01b03811661041457604051631e4fbdf760e01b81525f60048201526024016101f2565b61041d8161044c565b50565b5f546001600160a01b031633146101465760405163118cdaa760e01b81523360048201526024016101f2565b5f80546001600160a01b038381166001600160a01b0319831681178455604051919092169283917f8be0079c531659141344cd1fd0a4f28419497f9722a3daafe3b4186f6b6457e09190a35050565b5f602082840312156104ab575f80fd5b813567ffffffffffffffff8111156104c1575f80fd5b82016101408185031215610266575f80fd5b8035600681106104e1575f80fd5b919050565b80356001600160a01b03811681146104e1575f80fd5b5f806040838503121561050d575f80fd5b610516836104d3565b9150610524602084016104e6565b90509250929050565b5f6020828403121561053d575f80fd5b610266826104d3565b5f60208284031215610556575f80fd5b610266826104e6565b634e487b7160e01b5f52602160045260245ffd5b6006811061058f57634e487b7160e01b5f52602160045260245ffd5b9052565b5f808335601e198436030181126105a8575f80fd5b830160208101925035905067ffffffffffffffff8111156105c7575f80fd5b8036038213156105d5575f80fd5b9250929050565b81835281816020850137505f828201602090810191909152601f909101601f19169091010190565b803567ffffffffffffffff811681146104e1575f80fd5b60208082528235828201528201356040808301919091528201356060808301919091525f9061064b9084016104e6565b6001600160a01b038116608084015250610667608084016104e6565b6001600160a01b03811660a08401525061068360a084016104d3565b61069060c0840182610573565b5061069e60c0840184610593565b61014060e08501526106b5610160850182846105dc565b9150506106c460e085016104e6565b6001600160a01b038116610100850152506106e26101008501610604565b67ffffffffffffffff8116610120850152506107016101208501610604565b67ffffffffffffffff8116610140850152509392505050565b5f6020828403121561072a575f80fd5b81518015158114610266575f80fdfea2646970667358221220aecf6fc6fc64033c216b7c7f9acfd9cad5c9ff43e88f9b938790a32904c6a48d64736f6c634300081a0033",
  "linkReferences": {},
  "deployedLinkReferences": {}
}