{
  "_format": "hh-sol-artifact-1",
  "contractName": "QuittanceRegistry",
  "sourceName": "contracts/QuittanceRegistry.sol",
  "abi": [
    {
      "inputs": [
        {
          "internalType": "address",
          "name": "_adapterRegistry",
          "type": "address"
        },
        {
          "internalType": "address",
          "name": "_escrow",
          "type": "address"
        }
      ],
      "stateMutability": "nonpayable",
      "type": "constructor"
    },
    {
      "anonymous": false,
      "inputs": [
        {
          "indexed": true,
          "internalType": "bytes32",
          "name": "paymentId",
          "type": "bytes32"
        },
        {
          "indexed": true,
          "internalType": "address",
          "name": "sellerPassport",
          "type": "address"
        },
        {
          "indexed": true,
          "internalType": "address",
          "name": "buyerPassport",
          "type": "address"
        },
        {
          "indexed": false,
          "internalType": "enum ProofType",
          "name": "proofType",
          "type": "uint8"
        },
        {
          "indexed": false,
          "internalType": "bytes32",
          "name": "resultHash",
          "type": "bytes32"
        }
      ],
      "name": "QuittancePosted",
      "type": "event"
    },
    {
      "inputs": [],
      "name": "adapterRegistry",
      "outputs": [
        {
          "internalType": "contract AdapterRegistry",
          "name": "",
          "type": "address"
        }
      ],
      "stateMutability": "view",
      "type": "function"
    },
    {
      "inputs": [],
      "name": "escrow",
      "outputs": [
        {
          "internalType": "contract Escrow",
          "name": "",
          "type": "address"
        }
      ],
      "stateMutability": "view",
      "type": "function"
    },
    {
      "inputs": [
        {
          "internalType": "bytes32",
          "name": "paymentId",
          "type": "bytes32"
        }
      ],
      "name": "getQuittance",
      "outputs": [
        {
          "components": [
            {
              "internalType": "bytes32",
              "name": "paymentId",
              "type": "bytes32"
            },
            {
              "internalType": "bytes32",
              "name": "requestHash",
              "type": "bytes32"
            },
            {
              "internalType": "bytes32",
              "name": "resultHash",
              "type": "bytes32"
            },
            {
              "internalType": "address",
              "name": "sellerPassport",
              "type": "address"
            },
            {
              "internalType": "address",
              "name": "buyerPassport",
              "type": "address"
            },
            {
              "internalType": "enum ProofType",
              "name": "proofType",
              "type": "uint8"
            },
            {
              "internalType": "bytes",
              "name": "proofPayload",
              "type": "bytes"
            },
            {
              "internalType": "address",
              "name": "attestor",
              "type": "address"
            },
            {
              "internalType": "uint64",
              "name": "deliveredAt",
              "type": "uint64"
            },
            {
              "internalType": "uint64",
              "name": "deadline",
              "type": "uint64"
            }
          ],
          "internalType": "struct Quittance",
          "name": "",
          "type": "tuple"
        }
      ],
      "stateMutability": "view",
      "type": "function"
    },
    {
      "inputs": [
        {
          "components": [
            {
              "internalType": "bytes32",
              "name": "paymentId",
              "type": "bytes32"
            },
            {
              "internalType": "bytes32",
              "name": "requestHash",
              "type": "bytes32"
            },
            {
              "internalType": "bytes32",
              "name": "resultHash",
              "type": "bytes32"
            },
            {
              "internalType": "address",
              "name": "sellerPassport",
              "type": "address"
            },
            {
              "internalType": "address",
              "name": "buyerPassport",
              "type": "address"
            },
            {
              "internalType": "enum ProofType",
              "name": "proofType",
              "type": "uint8"
            },
            {
              "internalType": "bytes",
              "name": "proofPayload",
              "type": "bytes"
            },
            {
              "internalType": "address",
              "name": "attestor",
              "type": "address"
            },
            {
              "internalType": "uint64",
              "name": "deliveredAt",
              "type": "uint64"
            },
            {
              "internalType": "uint64",
              "name": "deadline",
              "type": "uint64"
            }
          ],
          "internalType": "struct Quittance",
          "name": "q",
          "type": "tuple"
        }
      ],
      "name": "post",
      "outputs": [],
      "stateMutability": "nonpayable",
      "type": "function"
    },
    {
      "inputs": [
        {
          "internalType": "address",
          "name": "",
          "type": "address"
        }
      ],
      "name": "successCount",
      "outputs": [
        {
          "internalType": "uint256",
          "name": "",
          "type": "uint256"
        }
      ],
      "stateMutability": "view",
      "type": "function"
    },
    {
      "inputs": [
        {
          "internalType": "address",
          "name": "",
          "type": "address"
        }
      ],
      "name": "totalVolume",
      "outputs": [
        {
          "internalType": "uint256",
          "name": "",
          "type": "uint256"
        }
      ],
      "stateMutability": "view",
      "type": "function"
    }
  ],
  "bytecode": "0x60c060405234801561000f575f80fd5b5060405161120338038061120383398101604081905261002e91610111565b6001600160a01b0382166100895760405162461bcd60e51b815260206004820152601e60248201527f52656769737472793a207a65726f20616461707465725265676973747279000060448201526064015b60405180910390fd5b6001600160a01b0381166100df5760405162461bcd60e51b815260206004820152601560248201527f52656769737472793a207a65726f20657363726f7700000000000000000000006044820152606401610080565b6001600160a01b039182166080521660a052610142565b80516001600160a01b038116811461010c575f80fd5b919050565b5f8060408385031215610122575f80fd5b61012b836100f6565b9150610139602084016100f6565b90509250929050565b60805160a05161108c6101775f395f818161011301528181610388015261094a01525f8181609201526106c6015261108c5ff3fe608060405234801561000f575f80fd5b5060043610610060575f3560e01c80634aa8cc151461006457806350b5c16a1461008d5780639d11553c146100cc578063e12f3653146100e1578063e2fdcc171461010e578063e62b9e6c14610135575b5f80fd5b610077610072366004610a34565b610154565b6040516100849190610aad565b60405180910390f35b6100b47f000000000000000000000000000000000000000000000000000000000000000081565b6040516001600160a01b039091168152602001610084565b6100df6100da366004610b7f565b610300565b005b6101006100ef366004610be4565b60016020525f908152604090205481565b604051908152602001610084565b6100b47f000000000000000000000000000000000000000000000000000000000000000081565b610100610143366004610be4565b60026020525f908152604090205481565b60408051610140810182525f8082526020820181905291810182905260608082018390526080820183905260a0820183905260c082015260e0810182905261010081018290526101208101919091525f82815260208181526040918290208251610140810184528154815260018201549281019290925260028101549282019290925260038201546001600160a01b0390811660608301526004830154908116608083015290919060a0830190600160a01b900460ff16600581111561021c5761021c610a4b565b600581111561022d5761022d610a4b565b815260200160058201805461024190610bff565b80601f016020809104026020016040519081016040528092919081815260200182805461026d90610bff565b80156102b85780601f1061028f576101008083540402835291602001916102b8565b820191905f5260205f20905b81548152906001019060200180831161029b57829003601f168201915b505050918352505060068201546001600160a01b03811660208301526001600160401b03600160a01b9091048116604083015260079092015490911660609091015292915050565b80355f90815260208190526040902060060154600160a01b90046001600160401b0316156103805760405162461bcd60e51b815260206004820152602260248201527f52656769737472793a207175697474616e636520616c726561647920706f7374604482015261195960f21b60648201526084015b60405180910390fd5b5f805f805f807f00000000000000000000000000000000000000000000000000000000000000006001600160a01b0316638b6c0510885f01356040518263ffffffff1660e01b81526004016103d791815260200190565b60c060405180830381865afa1580156103f2573d5f803e3d5ffd5b505050506040513d601f19601f820116820180604052508101906104169190610c5a565b949a509298509096509450925090506001600160a01b0386166104855760405162461bcd60e51b815260206004820152602160248201527f52656769737472793a206e6f20657363726f7720666f72207061796d656e74496044820152601960fa1b6064820152608401610377565b81158015610491575080155b6104e75760405162461bcd60e51b815260206004820152602160248201527f52656769737472793a20657363726f7720616c7265616479207265736f6c76656044820152601960fa1b6064820152608401610377565b6001600160a01b0385166105016080890160608a01610be4565b6001600160a01b0316146105575760405162461bcd60e51b815260206004820152601960248201527f52656769737472793a2073656c6c6572206d69736d61746368000000000000006044820152606401610377565b6001600160a01b03861661057160a0890160808a01610be4565b6001600160a01b0316146105c75760405162461bcd60e51b815260206004820152601860248201527f52656769737472793a206275796572206d69736d6174636800000000000000006044820152606401610377565b60056105d960c0890160a08a01610cd9565b60058111156105ea576105ea610a4b565b0361065657826001600160401b031642116106515760405162461bcd60e51b815260206004820152602160248201527f52656769737472793a20646561646c696e65206e6f74207965742070617373656044820152601960fa1b6064820152608401610377565b6106af565b826001600160401b03164211156106af5760405162461bcd60e51b815260206004820152601960248201527f52656769737472793a20646561646c696e6520706173736564000000000000006044820152606401610377565b6040516312b9f12560e31b81526001600160a01b037f000000000000000000000000000000000000000000000000000000000000000016906395cf8928906106fb908a90600401610d6d565b602060405180830381865afa158015610716573d5f803e3d5ffd5b505050506040513d601f19601f8201168201806040525081019061073a9190610e67565b6107865760405162461bcd60e51b815260206004820152601760248201527f52656769737472793a2070726f6f6620696e76616c69640000000000000000006044820152606401610377565b86355f8181526020818152604091829020928355890135600183015588013560028201556107ba6080890160608a01610be4565b6003820180546001600160a01b0319166001600160a01b03929092169190911790556107ec60a0890160808a01610be4565b6004820180546001600160a01b0319166001600160a01b039290921691909117905561081e60c0890160a08a01610cd9565b60048201805460ff60a01b1916600160a01b83600581111561084257610842610a4b565b021790555061085460c0890189610e80565b6005830191610864919083610f22565b50610876610100890160e08a01610be4565b6006820180546001600160a01b03929092166001600160e01b031990921691909117600160a01b426001600160401b0316021790556108bd61014089016101208a01610fdb565b60078201805467ffffffffffffffff19166001600160401b03929092169190911790556001600160a01b0386165f9081526001602052604081208054916109038361100a565b90915550506001600160a01b0386165f908152600260205260408120805487929061092f908490611022565b909155505060405163987757dd60e01b8152883560048201527f00000000000000000000000000000000000000000000000000000000000000006001600160a01b03169063987757dd906024015f604051808303815f87803b158015610993575f80fd5b505af11580156109a5573d5f803e3d5ffd5b506109ba9250505060a0890160808a01610be4565b6001600160a01b03166109d360808a0160608b01610be4565b6001600160a01b031689357f8e9c0fbd71ed34cc01deb44f9e04ff3207440113610d155757370cd892d61f20610a0f60c08d0160a08e01610cd9565b8c60400135604051610a2292919061103b565b60405180910390a45050505050505050565b5f60208284031215610a44575f80fd5b5035919050565b634e487b7160e01b5f52602160045260245ffd5b60068110610a7b57634e487b7160e01b5f52602160045260245ffd5b9052565b5f81518084528060208401602086015e5f602082860101526020601f19601f83011685010191505092915050565b602081528151602082015260208201516040820152604082015160608201525f6060830151610ae760808401826001600160a01b03169052565b5060808301516001600160a01b03811660a08401525060a0830151610b0f60c0840182610a5f565b5060c083015161014060e0840152610b2b610160840182610a7f565b905060e0840151610b486101008501826001600160a01b03169052565b506101008401516001600160401b038116610120850152506101208401516001600160401b0381166101408501525b509392505050565b5f60208284031215610b8f575f80fd5b81356001600160401b03811115610ba4575f80fd5b82016101408185031215610bb6575f80fd5b9392505050565b6001600160a01b0381168114610bd1575f80fd5b50565b8035610bdf81610bbd565b919050565b5f60208284031215610bf4575f80fd5b8135610bb681610bbd565b600181811c90821680610c1357607f821691505b602082108103610c3157634e487b7160e01b5f52602260045260245ffd5b50919050565b6001600160401b0381168114610bd1575f80fd5b80518015158114610bdf575f80fd5b5f805f805f8060c08789031215610c6f575f80fd5b8651610c7a81610bbd565b6020880151909650610c8b81610bbd565b604088015160608901519196509450610ca381610c37565b9250610cb160808801610c4b565b9150610cbf60a08801610c4b565b90509295509295509295565b803560068110610bdf575f80fd5b5f60208284031215610ce9575f80fd5b610bb682610ccb565b5f808335601e19843603018112610d07575f80fd5b83016020810192503590506001600160401b03811115610d25575f80fd5b803603821315610d33575f80fd5b9250929050565b81835281816020850137505f828201602090810191909152601f909101601f19169091010190565b8035610bdf81610c37565b60208082528235828201528201356040808301919091528201356060808301919091525f90610d9d908401610bd4565b6001600160a01b038116608084015250610db960808401610bd4565b6001600160a01b03811660a084015250610dd560a08401610ccb565b610de260c0840182610a5f565b50610df060c0840184610cf2565b61014060e0850152610e0761016085018284610d3a565b915050610e1660e08501610bd4565b6001600160a01b03811661010085015250610e346101008501610d62565b6001600160401b03811661012085015250610e526101208501610d62565b6001600160401b038116610140850152610b77565b5f60208284031215610e77575f80fd5b610bb682610c4b565b5f808335601e19843603018112610e95575f80fd5b8301803591506001600160401b03821115610eae575f80fd5b602001915036819003821315610d33575f80fd5b634e487b7160e01b5f52604160045260245ffd5b601f821115610f1d57805f5260205f20601f840160051c81016020851015610efb5750805b601f840160051c820191505b81811015610f1a575f8155600101610f07565b50505b505050565b6001600160401b03831115610f3957610f39610ec2565b610f4d83610f478354610bff565b83610ed6565b5f601f841160018114610f7e575f8515610f675750838201355b5f19600387901b1c1916600186901b178355610f1a565b5f83815260208120601f198716915b82811015610fad5786850135825560209485019460019092019101610f8d565b5086821015610fc9575f1960f88860031b161c19848701351681555b505060018560011b0183555050505050565b5f60208284031215610feb575f80fd5b8135610bb681610c37565b634e487b7160e01b5f52601160045260245ffd5b5f6001820161101b5761101b610ff6565b5060010190565b8082018082111561103557611035610ff6565b92915050565b604081016110498285610a5f565b826020830152939250505056fea264697066735822122009d9caea4c1c255684fb7ab685a01979c9ded74d114f9095bae9f15ad4b73bbd64736f6c634300081a0033",
  "linkReferences": {},
  "deployedLinkReferences": {}
}