{
  "_format": "hh-sol-artifact-1",
  "contractName": "Bond",
  "sourceName": "contracts/Bond.sol",
  "abi": [
    {
      "inputs": [
        {
          "internalType": "address",
          "name": "_token",
          "type": "address"
        },
        {
          "internalType": "uint256",
          "name": "_minBond",
          "type": "uint256"
        }
      ],
      "stateMutability": "nonpayable",
      "type": "constructor"
    },
    {
      "inputs": [
        {
          "internalType": "address",
          "name": "owner",
          "type": "address"
        }
      ],
      "name": "OwnableInvalidOwner",
      "type": "error"
    },
    {
      "inputs": [
        {
          "internalType": "address",
          "name": "account",
          "type": "address"
        }
      ],
      "name": "OwnableUnauthorizedAccount",
      "type": "error"
    },
    {
      "inputs": [
        {
          "internalType": "address",
          "name": "token",
          "type": "address"
        }
      ],
      "name": "SafeERC20FailedOperation",
      "type": "error"
    },
    {
      "anonymous": false,
      "inputs": [
        {
          "indexed": true,
          "internalType": "address",
          "name": "seller",
          "type": "address"
        },
        {
          "indexed": false,
          "internalType": "uint256",
          "name": "amount",
          "type": "uint256"
        }
      ],
      "name": "Deposited",
      "type": "event"
    },
    {
      "anonymous": false,
      "inputs": [
        {
          "indexed": false,
          "internalType": "address",
          "name": "escrow",
          "type": "address"
        }
      ],
      "name": "EscrowSet",
      "type": "event"
    },
    {
      "anonymous": false,
      "inputs": [
        {
          "indexed": true,
          "internalType": "address",
          "name": "seller",
          "type": "address"
        },
        {
          "indexed": false,
          "internalType": "uint256",
          "name": "amount",
          "type": "uint256"
        }
      ],
      "name": "GasFloatConsumed",
      "type": "event"
    },
    {
      "anonymous": false,
      "inputs": [
        {
          "indexed": true,
          "internalType": "address",
          "name": "seller",
          "type": "address"
        },
        {
          "indexed": false,
          "internalType": "uint256",
          "name": "amount",
          "type": "uint256"
        }
      ],
      "name": "GasFloatToppedUp",
      "type": "event"
    },
    {
      "anonymous": false,
      "inputs": [
        {
          "indexed": true,
          "internalType": "address",
          "name": "previousOwner",
          "type": "address"
        },
        {
          "indexed": true,
          "internalType": "address",
          "name": "newOwner",
          "type": "address"
        }
      ],
      "name": "OwnershipTransferred",
      "type": "event"
    },
    {
      "anonymous": false,
      "inputs": [
        {
          "indexed": true,
          "internalType": "address",
          "name": "seller",
          "type": "address"
        },
        {
          "indexed": false,
          "internalType": "uint256",
          "name": "requested",
          "type": "uint256"
        },
        {
          "indexed": false,
          "internalType": "uint256",
          "name": "actual",
          "type": "uint256"
        }
      ],
      "name": "Slashed",
      "type": "event"
    },
    {
      "anonymous": false,
      "inputs": [
        {
          "indexed": true,
          "internalType": "address",
          "name": "seller",
          "type": "address"
        },
        {
          "indexed": false,
          "internalType": "uint256",
          "name": "amount",
          "type": "uint256"
        },
        {
          "indexed": false,
          "internalType": "uint64",
          "name": "availableAt",
          "type": "uint64"
        }
      ],
      "name": "WithdrawRequested",
      "type": "event"
    },
    {
      "anonymous": false,
      "inputs": [
        {
          "indexed": true,
          "internalType": "address",
          "name": "seller",
          "type": "address"
        },
        {
          "indexed": false,
          "internalType": "uint256",
          "name": "amount",
          "type": "uint256"
        }
      ],
      "name": "Withdrawn",
      "type": "event"
    },
    {
      "inputs": [],
      "name": "COOLDOWN",
      "outputs": [
        {
          "internalType": "uint256",
          "name": "",
          "type": "uint256"
        }
      ],
      "stateMutability": "view",
      "type": "function"
    },
    {
      "inputs": [],
      "name": "MIN_BOND",
      "outputs": [
        {
          "internalType": "uint256",
          "name": "",
          "type": "uint256"
        }
      ],
      "stateMutability": "view",
      "type": "function"
    },
    {
      "inputs": [
        {
          "internalType": "address",
          "name": "",
          "type": "address"
        }
      ],
      "name": "bonds",
      "outputs": [
        {
          "internalType": "uint256",
          "name": "",
          "type": "uint256"
        }
      ],
      "stateMutability": "view",
      "type": "function"
    },
    {
      "inputs": [
        {
          "internalType": "address",
          "name": "seller",
          "type": "address"
        },
        {
          "internalType": "uint256",
          "name": "amount",
          "type": "uint256"
        }
      ],
      "name": "consumeGasFloat",
      "outputs": [],
      "stateMutability": "nonpayable",
      "type": "function"
    },
    {
      "inputs": [
        {
          "internalType": "uint256",
          "name": "amount",
          "type": "uint256"
        }
      ],
      "name": "deposit",
      "outputs": [],
      "stateMutability": "nonpayable",
      "type": "function"
    },
    {
      "inputs": [],
      "name": "escrow",
      "outputs": [
        {
          "internalType": "address",
          "name": "",
          "type": "address"
        }
      ],
      "stateMutability": "view",
      "type": "function"
    },
    {
      "inputs": [
        {
          "internalType": "address",
          "name": "",
          "type": "address"
        }
      ],
      "name": "gasFloat",
      "outputs": [
        {
          "internalType": "uint256",
          "name": "",
          "type": "uint256"
        }
      ],
      "stateMutability": "view",
      "type": "function"
    },
    {
      "inputs": [
        {
          "internalType": "address",
          "name": "seller",
          "type": "address"
        },
        {
          "internalType": "uint256",
          "name": "price",
          "type": "uint256"
        }
      ],
      "name": "isSufficientlyBonded",
      "outputs": [
        {
          "internalType": "bool",
          "name": "",
          "type": "bool"
        }
      ],
      "stateMutability": "view",
      "type": "function"
    },
    {
      "inputs": [
        {
          "internalType": "uint256",
          "name": "price",
          "type": "uint256"
        },
        {
          "internalType": "uint256",
          "name": "multiplier",
          "type": "uint256"
        }
      ],
      "name": "minBondRequired",
      "outputs": [
        {
          "internalType": "uint256",
          "name": "",
          "type": "uint256"
        }
      ],
      "stateMutability": "view",
      "type": "function"
    },
    {
      "inputs": [],
      "name": "owner",
      "outputs": [
        {
          "internalType": "address",
          "name": "",
          "type": "address"
        }
      ],
      "stateMutability": "view",
      "type": "function"
    },
    {
      "inputs": [],
      "name": "renounceOwnership",
      "outputs": [],
      "stateMutability": "nonpayable",
      "type": "function"
    },
    {
      "inputs": [
        {
          "internalType": "uint256",
          "name": "amount",
          "type": "uint256"
        }
      ],
      "name": "requestWithdraw",
      "outputs": [],
      "stateMutability": "nonpayable",
      "type": "function"
    },
    {
      "inputs": [
        {
          "internalType": "address",
          "name": "_escrow",
          "type": "address"
        }
      ],
      "name": "setEscrow",
      "outputs": [],
      "stateMutability": "nonpayable",
      "type": "function"
    },
    {
      "inputs": [
        {
          "internalType": "address",
          "name": "seller",
          "type": "address"
        },
        {
          "internalType": "uint256",
          "name": "amount",
          "type": "uint256"
        }
      ],
      "name": "slash",
      "outputs": [],
      "stateMutability": "nonpayable",
      "type": "function"
    },
    {
      "inputs": [],
      "name": "token",
      "outputs": [
        {
          "internalType": "contract IERC20",
          "name": "",
          "type": "address"
        }
      ],
      "stateMutability": "view",
      "type": "function"
    },
    {
      "inputs": [
        {
          "internalType": "uint256",
          "name": "amount",
          "type": "uint256"
        }
      ],
      "name": "topUpGasFloat",
      "outputs": [],
      "stateMutability": "nonpayable",
      "type": "function"
    },
    {
      "inputs": [
        {
          "internalType": "address",
          "name": "",
          "type": "address"
        }
      ],
      "name": "totalSlashed",
      "outputs": [
        {
          "internalType": "uint256",
          "name": "",
          "type": "uint256"
        }
      ],
      "stateMutability": "view",
      "type": "function"
    },
    {
      "inputs": [
        {
          "internalType": "address",
          "name": "newOwner",
          "type": "address"
        }
      ],
      "name": "transferOwnership",
      "outputs": [],
      "stateMutability": "nonpayable",
      "type": "function"
    },
    {
      "inputs": [],
      "name": "withdraw",
      "outputs": [],
      "stateMutability": "nonpayable",
      "type": "function"
    },
    {
      "inputs": [
        {
          "internalType": "address",
          "name": "",
          "type": "address"
        }
      ],
      "name": "withdrawRequests",
      "outputs": [
        {
          "internalType": "uint256",
          "name": "amount",
          "type": "uint256"
        },
        {
          "internalType": "uint64",
          "name": "availableAt",
          "type": "uint64"
        }
      ],
      "stateMutability": "view",
      "type": "function"
    }
  ],
  "bytecode": "0x60c060405234801561000f575f80fd5b506040516110e93803806110e983398101604081905261002e9161010c565b338061005457604051631e4fbdf760e01b81525f60048201526024015b60405180910390fd5b61005d816100bd565b506001600160a01b0382166100a75760405162461bcd60e51b815260206004820152601060248201526f2137b7321d103d32b937903a37b5b2b760811b604482015260640161004b565b6001600160a01b0390911660805260a052610143565b5f80546001600160a01b038381166001600160a01b0319831681178455604051919092169283917f8be0079c531659141344cd1fd0a4f28419497f9722a3daafe3b4186f6b6457e09190a35050565b5f806040838503121561011d575f80fd5b82516001600160a01b0381168114610133575f80fd5b6020939093015192949293505050565b60805160a051610f4d61019c5f395f81816102b7015281816105640152818161058b01528181610a070152610a2e01525f818161030401528181610440015281816104dd015281816106d70152610a880152610f4d5ff3fe608060405234801561000f575f80fd5b5060043610610127575f3560e01c80637ca89ec6116100a9578063e0de0fee1161006e578063e0de0fee146102b2578063e2fdcc17146102d9578063f2fde38b146102ec578063fc0c546a146102ff578063fe10d77414610326575f80fd5b80637ca89ec61461024b5780638da5cb5b1461025e578063a2724a4d14610282578063b6b55f251461028c578063c10c35461461029f575f80fd5b806352df49ec116100ef57806352df49ec146101b05780635825fdd2146101fe5780636fe9dcac1461021d578063715018a614610230578063745400c914610238575f80fd5b806302fb4d851461012b5780630663d50d1461014057806330f92439146101535780633a774a08146101855780633ccfd60b146101a8575b5f80fd5b61013e610139366004610e1c565b610345565b005b61013e61014e366004610e44565b6104b1565b610172610161366004610e5b565b60056020525f908152604090205481565b6040519081526020015b60405180910390f35b610198610193366004610e1c565b610561565b604051901515815260200161017c565b61013e6105d4565b6101e06101be366004610e5b565b60046020525f90815260409020805460019091015467ffffffffffffffff1682565b6040805192835267ffffffffffffffff90911660208301520161017c565b61017261020c366004610e5b565b60036020525f908152604090205481565b61013e61022b366004610e1c565b610739565b61013e61085d565b61013e610246366004610e44565b610870565b610172610259366004610e7b565b6109f7565b5f546001600160a01b03165b6040516001600160a01b03909116815260200161017c565b61017262093a8081565b61013e61029a366004610e44565b610a5c565b61013e6102ad366004610e5b565b610b05565b6101727f000000000000000000000000000000000000000000000000000000000000000081565b60015461026a906001600160a01b031681565b61013e6102fa366004610e5b565b610c04565b61026a7f000000000000000000000000000000000000000000000000000000000000000081565b610172610334366004610e5b565b60026020525f908152604090205481565b6001546001600160a01b031633146103985760405162461bcd60e51b8152602060048201526011602482015270426f6e643a206f6e6c7920657363726f7760781b60448201526064015b60405180910390fd5b6001600160a01b0382165f90815260026020526040812054908183116103be57826103c0565b815b9050805f036103cf5750505050565b6001600160a01b0384165f90815260026020526040812080548392906103f6908490610eaf565b90915550506001600160a01b0384165f9081526005602052604081208054839290610422908490610ec2565b90915550505f54610467906001600160a01b03166001600160a01b037f0000000000000000000000000000000000000000000000000000000000000000169083610c41565b60408051848152602081018390526001600160a01b038616917f45a371af55b0726877a30f464edc14db5879ab096590bacce682cf6c18223596910160405180910390a250505050565b5f81116104d05760405162461bcd60e51b815260040161038f90610ed5565b6105056001600160a01b037f000000000000000000000000000000000000000000000000000000000000000016333084610c7b565b335f9081526003602052604081208054839290610523908490610ec2565b909155505060405181815233907f327cbb40428c12eb9f255b87867305379f8dcaff93602fe9a6d86f56d8e7e802906020015b60405180910390a250565b5f7f000000000000000000000000000000000000000000000000000000000000000082116105af577f00000000000000000000000000000000000000000000000000000000000000006105b1565b815b6001600160a01b0384165f90815260026020526040902054101590505b92915050565b335f908152600460209081526040918290208251808401909352805480845260019091015467ffffffffffffffff16918301919091526106565760405162461bcd60e51b815260206004820152601860248201527f426f6e643a206e6f2070656e64696e6720726571756573740000000000000000604482015260640161038f565b806020015167ffffffffffffffff164210156106ac5760405162461bcd60e51b8152602060048201526015602482015274426f6e643a20636f6f6c646f776e2061637469766560581b604482015260640161038f565b335f818152600460205260408120908155600101805467ffffffffffffffff191690558151610705917f00000000000000000000000000000000000000000000000000000000000000006001600160a01b031691610c41565b805160405190815233907f7084f5476618d8e60b11ef0d7d3f06914655adb8793e28ff7f018d4c76d505d590602001610556565b6001546001600160a01b031633146107875760405162461bcd60e51b8152602060048201526011602482015270426f6e643a206f6e6c7920657363726f7760781b604482015260640161038f565b6001600160a01b0382165f908152600360205260409020548111156107ee5760405162461bcd60e51b815260206004820152601c60248201527f426f6e643a20696e73756666696369656e742067617320666c6f617400000000604482015260640161038f565b6001600160a01b0382165f9081526003602052604081208054839290610815908490610eaf565b90915550506040518181526001600160a01b038316907f20d6c4beb093b279acb635e8b65acc313aeef72a2201905ee877eab30e963835906020015b60405180910390a25050565b610865610cb7565b61086e5f610ce3565b565b5f811161088f5760405162461bcd60e51b815260040161038f90610ed5565b335f908152600260205260409020548111156108ed5760405162461bcd60e51b815260206004820152601760248201527f426f6e643a20696e73756666696369656e7420626f6e64000000000000000000604482015260640161038f565b335f90815260046020526040902054156109415760405162461bcd60e51b8152602060048201526015602482015274109bdb990e881c195b991a5b99c81c995c5d595cdd605a1b604482015260640161038f565b335f908152600260205260408120805483929061095f908490610eaf565b909155505f905061097362093a8042610ec2565b60408051808201825284815267ffffffffffffffff8381166020808401828152335f818152600484528790209551865590516001909501805467ffffffffffffffff19169590941694909417909255835187815291820152929350917fc0441ca12c133d923daae67e5aae94bfe4c5d35e5735c90fc32ca60244f2e5859101610851565b5f80610a038385610f00565b90507f00000000000000000000000000000000000000000000000000000000000000008111610a52577f0000000000000000000000000000000000000000000000000000000000000000610a54565b805b949350505050565b5f8111610a7b5760405162461bcd60e51b815260040161038f90610ed5565b610ab06001600160a01b037f000000000000000000000000000000000000000000000000000000000000000016333084610c7b565b335f9081526002602052604081208054839290610ace908490610ec2565b909155505060405181815233907f2da466a7b24304f47e87fa2e1e5a81b9831ce54fec19055ce277ca2f39ba42c490602001610556565b610b0d610cb7565b6001546001600160a01b031615610b665760405162461bcd60e51b815260206004820152601860248201527f426f6e643a20657363726f7720616c7265616479207365740000000000000000604482015260640161038f565b6001600160a01b038116610bb05760405162461bcd60e51b8152602060048201526011602482015270426f6e643a207a65726f20657363726f7760781b604482015260640161038f565b600180546001600160a01b0319166001600160a01b0383169081179091556040519081527fa585aec3a6cb0e1a084ed18c7638024e40cc3e3ea815166e2cb6fc17d7f1392b9060200160405180910390a150565b610c0c610cb7565b6001600160a01b038116610c3557604051631e4fbdf760e01b81525f600482015260240161038f565b610c3e81610ce3565b50565b610c4e8383836001610d32565b610c7657604051635274afe760e01b81526001600160a01b038416600482015260240161038f565b505050565b610c89848484846001610d94565b610cb157604051635274afe760e01b81526001600160a01b038516600482015260240161038f565b50505050565b5f546001600160a01b0316331461086e5760405163118cdaa760e01b815233600482015260240161038f565b5f80546001600160a01b038381166001600160a01b0319831681178455604051919092169283917f8be0079c531659141344cd1fd0a4f28419497f9722a3daafe3b4186f6b6457e09190a35050565b60405163a9059cbb60e01b5f8181526001600160a01b038616600452602485905291602083604481808b5af1925060015f51148316610d88578383151615610d7c573d5f823e3d81fd5b5f873b113d1516831692505b60405250949350505050565b6040516323b872dd60e01b5f8181526001600160a01b038781166004528616602452604485905291602083606481808c5af1925060015f51148316610df0578383151615610de4573d5f823e3d81fd5b5f883b113d1516831692505b604052505f60605295945050505050565b80356001600160a01b0381168114610e17575f80fd5b919050565b5f8060408385031215610e2d575f80fd5b610e3683610e01565b946020939093013593505050565b5f60208284031215610e54575f80fd5b5035919050565b5f60208284031215610e6b575f80fd5b610e7482610e01565b9392505050565b5f8060408385031215610e8c575f80fd5b50508035926020909101359150565b634e487b7160e01b5f52601160045260245ffd5b818103818111156105ce576105ce610e9b565b808201808211156105ce576105ce610e9b565b602080825260119082015270109bdb990e881e995c9bc8185b5bdd5b9d607a1b604082015260600190565b80820281158282048414176105ce576105ce610e9b56fea26469706673582212209a5a60aa91cc5be8318b1a177736ae0a5b866eb150494e73a44fbbfae2fef09364736f6c634300081a0033",
  "linkReferences": {},
  "deployedLinkReferences": {}
}